:020000040800F2
:10C00000F8C2002049C10008BDF2010881C701083B
:10C01000B1E00108056C0108F5AE0208000000005F
:10C02000000000000000000000000000B1580208FD
:10C03000218D010800000000C1FB0108858C020869
:10C0400063C1000863C1000863C1000863C1000840
:10C0500063C1000863C100088BD6000863C10008F3
:10C0600063C1000863C1000863C1000863C1000820
:10C0700063C1000863C1000863C1000863C1000810
:10C0800063C1000863C1000863C10008000000002C
:10C0900000000000000000000000000063C1000874
:10C0A00063C1000863C1000863C1000863C10008E0
:10C0B000AD38010863C1000863C1000863C100080E
:10C0C00063C1000863C1000863C1000863C10008C0
:10C0D000C345010865400108752A0108A34201080B
:10C0E00063C1000863C1000863C1000863C10008A0
:10C0F00063C1000863C100080000000000000000E8
:10C10000000000000000000063C1000863C10008D7
:10C110006749010863C1000863C1000863C10008E2
:10C1200063C1000863C1000863C1000863C100085F
:10C1300063C10008DFF80CD009F01EFA0048004780
:10C1400045F70208F8C20020064880470648004725
:10C15000FEE7FEE7FEE7FEE7FEE7FEE7FEE7FEE7B7
:10C16000FEE7FEE7898C020835C1000800B587B0FC
:10C170000120ADF8180000208DF81B0006A95448D6
:10C180000FF012FD01214FF4027018F063F94FF423
:10C19000804018F035F94F4809F054FE0020019016
:10C1A0008DF808008DF809004FF4602003900020FE
:10C1B000049001208DF8140001A9464809F092FE70
:10C1C0000121444809F032FE424809F00BFF00BF4C
:10C1D000404809F07CFE0028FAD13E4809F012FFE1
:10C1E00000BF3C4809F05CFE0028FAD10121394823
:10C1F00009F0FDFE07B000BD2DE9FF410024002538
:10C20000072301220821334809F092FE0121314819
:10C2100009F0EDFE00BF02212E4809F04FFE002874
:10C22000F9D02C4809F046FE0446204608F0B5FF38
:10C23000074608F0E2FFCDE9020127A00CC80298EA
:10C2400008F0BBFECDE9000109F010F806462449CC
:10C25000304608F0B0FD0646304608F0B5FF85B21E
:10C26000A804050C284604B0BDE8F08170B5ADF512
:10C270001A7D4FF4167104A808F0F1FC002519A1ED
:10C2800003C9CDE90201002413E0FFF7B5FF04A9BB
:10C2900021F8140004A830F814600020CDE90060F3
:10C2A0000146DDE90223B0185941CDE90201601CC5
:10C2B000C4B2642CE9DB0DA00CC8DDE9020108F072
:10C2C0006FFC85B2CDE9000128460DF51A7D70BDE1
:10C2D000000C01400024014042CD63B929AD493F23
:10C2E00000007A440000000000000000640000002C
:10C2F0000000000008B50121082018F0ABF810205C
:10C30000ADF8000004208DF80300694615480FF0D1
:10C310004BFC0121102018F09DF88020ADF80000A2
:10C3200004208DF8030069460F480FF03DFC08BD5E
:10C3300010B5002410210B480FF002FD012801D197
:10C34000012400E00224204610BD10B50024802105
:10C3500005480FF0F5FC012801D1012400E002247A
:10C36000204610BD000C01400010014008B501211D
:10C37000082018F06FF84FF40070ADF800000120AD
:10C380008DF8020010208DF80300694608480FF070
:10C390000BFC08BD10B54FF4007105480FF0D9FC37
:10C3A00010BD10B54FF4007101480FF0D4FC10BD62
:10C3B000000C014008B50121102018F04BF84FF493
:10C3C0008070ADF8000010208DF8030001208DF87A
:10C3D00002006946F8480FF0E7FB4FF40070ADF833
:10C3E00000006946F4480FF0DFFB4FF48071F2481B
:10C3F0000FF0B1FC4FF40071EF480FF0ACFC08BD3A
:10C4000010B54FF40071EC480FF0A5FC042007F0C4
:10C4100079FD4FF48071E8480FF09DFC042007F08F
:10C4200071FD4FF40071E4480FF093FC042007F015
:10C4300069FD10BD10B54FF40071DF480FF089FCA5
:10C44000042007F05FFD4FF48071DB480FF083FCA0
:10C45000042007F057FD4FF40071D7480FF07BFC24
:10C46000042007F04FFD10BD10B50024D2484068ED
:10C4700020F07000D04948600846406840F08000D5
:10C4800048608915CC480FF066FC022007F03AFDA1
:10C4900007E0601CC4B2FA2C03DDFFF7CBFF0120DC
:10C4A00010BD4FF40071C4480FF04AFC0028F0D1D1
:10C4B000042007F027FD4FF48071BF480FF049FCBE
:10C4C000042007F01FFDBC48406820F0F000BA4986
:10C4D00048600846406840F0100048600020DFE7F0
:10C4E00010B54FF48071B4480FF033FCB248406887
:10C4F00020F0F000B04948600846406840F0100065
:10C5000048604915AC480FF024FC022007F0FAFC03
:10C510004FF48071A8480FF01EFC042007F0F2FCD5
:10C520004FF48071A4480FF014FC10BD10B54FF407
:10C530008071A1480FF00DFC9F48406820F0F0008A
:10C540009D4948600846406840F010004860491521
:10C5500099480FF000FC022007F0D4FC4FF48071E2
:10C5600095480FF0F8FB042007F0CCFC4FF48071E5
:10C5700091480FF0EEFB10BD70B50546002423E096
:10C580004FF480718C480FF0E4FB022007F0BAFCF6
:10C59000E80905D04FF4007187480FF0DCFB04E098
:10C5A0004FF4007184480FF0D4FB6806050E02209A
:10C5B00007F0A8FC4FF480717F480FF0CCFB0420FB
:10C5C00007F0A0FC601CC4B2082CD9DB4FF48071CA
:10C5D00079480FF0BEFB042007F094FC4FF4007183
:10C5E00075480FF0B8FB022007F08CFC70BD70B5E9
:10C5F00000244FF4807170480FF0ABFB022007F06D
:10C6000081FC4FF400716C480FF0A5FB022007F08D
:10C6100079FC6948406820F0700067494860084626
:10C62000406840F08000486000251BE04FF48071B6
:10C6300061480FF090FB032007F064FC6006040ED5
:10C640004FF400715C480FF07BFB08B1601CC4B272
:10C650004FF4807158480FF07CFB042007F052FC27
:10C66000681CC5B2082DE1DB5348406820F0F0009B
:10C67000514948600846406840F010004860204634
:10C6800070BD2DE9F04104460D46E7B2260AFFF7DA
:10C69000B7FEA020FFF770FFFFF7E6FE10B1012004
:10C6A000BDE8F0813046FFF767FFFFF7DDFE08B118
:10C6B0000120F5E73846FFF75FFFFFF7D5FE08B129
:10C6C0000120EDE7FFF79CFEA120FFF755FFFFF7E4
:10C6D000CBFE08B10120E3E7FFF789FF2870FFF7E1
:10C6E00025FFFFF7A7FE0020DAE7F8B504460D4660
:10C6F000E7B2260AFFF784FEA020FFF73DFFFFF711
:10C70000B3FE08B10120F8BD3046FFF735FFFFF753
:10C71000ABFE08B10120F6E73846FFF72DFFFFF723
:10C72000A3FE08B10120EEE72846FFF725FFFFF73B
:10C730009BFE08B10120E6E7FFF77CFE052007F02D
:10C74000C3FB69462046FFF79CFF9DF80000A84206
:10C7500001D10020D7E70120D5E72DE9F0470446B5
:10C760000D46164604F0FF094FEA1428FFF748FE6D
:10C77000A020FFF701FFFFF777FE10B10120BDE811
:10C78000F0874046FFF7F8FEFFF76EFE08B1012084
:10C79000F5E74846FFF7F0FEFFF766FE08B1012017
:10C7A000EDE700270CE0E85DFFF7E6FEFFF75CFE33
:10C7B00020B10120E3E7000000100140781C07B21F
:10C7C000B742F0DBFFF736FE0A2007F07DFB0020C2
:10C7D000D5E72DE9F04104460D46164604F0FF0862
:10C7E000270AFFF70DFEA020FFF7C6FEFFF73CFE6D
:10C7F00010B10120BDE8F0813846FFF7BDFEFFF71C
:10C8000033FE08B10120F5E74046FFF7B5FEFFF71C
:10C810002BFE08B10120EDE7FFF7F2FDA120FFF7A5
:10C82000ABFEFFF721FE08B10120E3E709E0FFF7C7
:10C83000DEFE28706D1C012E01DDFFF751FE701E1B
:10C8400086B2002EF3DCFFF771FEFFF7F3FD002048
:10C85000D0E72DE9F04F91B004460D461646402131
:10C8600001A808F0FCF92046E11704EB9161891159
:10C87000A4EB8111C1F140011FFA81F93046F11793
:10C8800006EB9161C1F38F1ABAF1000F4FD109F095
:10C89000FF0229462046FFF760FF052007F014FB42
:10C8A0004A4601A92046FFF794FF4FF000080EE02A
:10C8B00001A810F8080015F80810884203D00120DC
:10C8C00011B0BDE8F08F08F101001FFA80F8C845EB
:10C8D000EEDBB1452BDACB46A6EB0903DAB205EB6A
:10C8E0000B01D94604EB0B0398B2FFF736FF052086
:10C8F00007F0EAFAA6EB090082B201A92046FFF789
:10C9000068FF4FF000080EE001A810F8080005EBE2
:10C910000B0111F80810884201D00120D0E708F17E
:10C9200001001FFA80F8A6EB09004045ECDCBAF1E3
:10C93000000F7EDD09F0FF0229462046FFF70DFFBC
:10C94000CB46002769E0A6EB0900402101FB170058
:10C95000402835DAA6EB09038C460CFB1733DAB214
:10C9600005EB0B0104EB0B0398B2FFF7F6FE052075
:10C9700007F0AAFAA6EB0901402303FB17118AB2BC
:10C9800004EB0B0188B201A9FFF723FF4FF0000869
:10C990000EE001A810F8080005EB0B0111F80810D3
:10C9A000884201D001208BE708F101001FFA80F8CE
:10C9B000A6EB0900402101FB17004045E9DC2AE015
:10C9C00005EB0B0104EB0B0290B24022FFF7C5FE12
:10C9D000052007F079FA04EB0B0188B2402201A987
:10C9E000FFF7F7FE4FF000080EE001A810F808006E
:10C9F00005EB0B0111F80810884201D001205FE718
:10CA000008F101001FFA80F8B8F1400FEDDB0BF1DF
:10CA100040001FFA80FB781C87B2574593DBA6EBDA
:10CA20000900402101FB1A00002836DDA6EB0903AE
:10CA300000E032E08C460CFB1A33DAB205EB0B0156
:10CA400004EB0B0398B2FFF788FE052007F03CFAD1
:10CA5000A6EB0901402303FB1A118AB204EB0B0178
:10CA600088B201A9FFF7B5FE4FF000080EE001A85B
:10CA700010F8080005EB0B0111F80810884201D0EE
:10CA800001201DE708F101001FFA80F8A6EB09005C
:10CA9000402101FB1A004045E9DC002010E710B5F9
:10CAA000FFF788FC10BD10B5A0B0342241A101A849
:10CAB00008F0BCF801A808F00EF90446024601A9E6
:10CAC0003C20FFF7C6FE20B93C220EA91046FFF716
:10CAD00080FE0A2007F0F8F920B010BD10B590B024
:10CAE000402269460020FFF774FE002408E01DF88C
:10CAF0000400FF2802D0002010B010BD601CC4B29A
:10CB0000402CF4DB402269461046FFF762FE002409
:10CB100007E01DF80400FF2801D00020ECE7601CAE
:10CB2000C4B2402CF5DB402269468020FFF751FE5D
:10CB3000002407E01DF80400FF2801D00020DBE7F7
:10CB4000601CC4B2402CF5DB40226946C020FFF7D0
:10CB500040FE002407E01DF80400FF2801D000205B
:10CB6000CAE7601CC4B2402CF5DB40226946900045
:10CB7000FFF72FFE002407E01DF80400FF2801D076
:10CB80000020B9E7601CC4B2402CF5DB40226946A6
:10CB90004FF4A070FFF71DFE002407E01DF804000D
:10CBA000FF2801D00020A7E7601CC4B2402CF5DBB1
:10CBB0000120A1E764696E676775616E70696E67D1
:10CBC0002068656C6C6F20746F64617920697320D4
:10CBD000323031312D31312D30312031363A32374A
:10CBE0003A35300A0000000008B50121042017F092
:10CBF00031FC2020ADF8000001208DF80200182043
:10CC00008DF803006946E5480EF0CEFF8020ADF8B0
:10CC100000006946E1480EF0C7FF4020ADF8000073
:10CC200004208DF803006946DC480EF0BDFF0820A3
:10CC3000ADF8000010208DF803006946D7480EF0CB
:10CC4000B3FF08BD10B5044600BF0221D44818F058
:10CC500001FD0028F9D02146D14818F007FD00BF9A
:10CC60000121CF4818F0F6FC0028F9D0CC4818F084
:10CC7000FAFCC0B210BD00B585B0FFF7B5FF0821C2
:10CC8000C6480FF068F80121080317F0E3FB002005
:10CC9000ADF800004FF48270ADF802000020ADF84E
:10CCA00004000220ADF806000120ADF808004002A3
:10CCB000ADF80A000020ADF80C00ADF80E0007201A
:10CCC000ADF810006946B64818F0D2FC0121B4480E
:10CCD00018F0ECFC0121B24818F0B0FC0821AF4874
:10CCE0000FF037F80120FFF7ADFF0220FFF7AAFF92
:10CCF0000821AA480FF02FF805B000BD2DE9F0413A
:10CD000000240025002600270821A4480FF021F860
:10CD10009F20FFF797FF0020FFF794FF05460020B4
:10CD2000FFF790FF06460020FFF78CFF074608211B
:10CD30009A480FF010F8280440EA062040EA070459
:10CD40002046BDE8F08110B5082194480FF001F8A5
:10CD50000620FFF777FF082190480EF0FCFF10BD7A
:10CD600010B5002408218D480EF0F3FF0520FFF7D1
:10CD700069FF00BF0020FFF765FF044604F00100D3
:10CD80000128F7D0082185480EF0E5FF10BD10B549
:10CD90000446FFF7D8FF082180480EF0DAFFD820BC
:10CDA000FFF750FFC4F30740FFF74CFFC4F3072021
:10CDB000FFF748FFE0B2FFF745FF082177480EF084
:10CDC000CAFFFFF7CDFF10BD10B5FFF7BCFF08216C
:10CDD00072480EF0BEFFC720FFF734FF08216F48EE
:10CDE0000EF0B9FFFFF7BCFF10BD70B504460D464D
:10CDF0001646FFF7A8FF082168480EF0AAFF022098
:10CE0000FFF720FFC5F30740FFF71CFFC5F307201E
:10CE1000FFF718FFE8B2FFF715FF03E02078FFF7F0
:10CE200011FF641C3000A6F101018EB2F6D1082179
:10CE30005A480EF090FFFFF793FF70BD2DE9F05FA9
:10CE400004460D4616460027B846B946BA46BB46C4
:10CE500005F0FF09C9F1000000F0FF0A3046F117A4
:10CE600006EB1161C1F30727F11706EB11610912F7
:10CE7000A6EB012101F0FF08B9F1000F1CD12FB979
:10CE8000324629462046FFF7B0FF5FE009E04FF445
:10CE9000807229462046FFF7A8FF05F5807504F546
:10CEA00080743800A7F10101CFB2F0D14246294683
:10CEB0002046FFF79AFF49E0C7B9D04510DDA8EB3F
:10CEC0000A0000F0FF0B524629462046FFF78DFF6F
:10CED000554454445A4629462046FFF786FF35E01C
:10CEE000324629462046FFF780FF2FE0A6EB0A00D6
:10CEF00086B23046F11706EB1161C1F30727F1172F
:10CF000006EB11610912A6EB012101F0FF08524660
:10CF100029462046FFF769FF5544544409E04FF481
:10CF2000807229462046FFF760FF05F5807504F5FD
:10CF300080743800A7F10101CFB2F0D1B8F1000F31
:10CF400004D0424629462046FFF74FFFBDE8F09F38
:10CF500070B504460D461646082110480EF0F9FE3D
:10CF60000320FFF76FFEC5F30740FFF76BFEC5F325
:10CF70000720FFF767FEE8B2FFF764FE04E0002039
:10CF8000FFF760FE2070641C3000A6F101018EB234
:10CF9000F5D1082101480EF0DEFE70BD0008014009
:10CFA0000030014010B5044664B101212E480EF056
:10CFB000D2FE4FF4FA6006F087FF01212A480EF0F6
:10CFC000C8FE03E0092128480EF0C3FE10BD10B5CD
:10CFD0004FF4004124480EF0BCFEC82006F074FF58
:10CFE0004FF4004120480EF0B6FEC82006F06CFF5A
:10CFF00010BD08B50121202017F02CFA0920ADF84A
:10D00000000001208DF8020010208DF80300694611
:10D0100015480EF0C9FDFFF7DAFF082112480EF09F
:10D0200098FE4FF4C87006F04FFF08210E480EF02E
:10D0300092FE4FF4C87006F047FF01210A480EF037
:10D0400088FE0120FFF7AEFF4FF4E13007F0B2F8A1
:10D0500008BD10B54FF4004103480EF07AFEC82019
:10D0600006F032FF10BD0000001401400EB5012093
:10D070000CF0D8FD0120019000208DF808000C2054
:10D080008DF8090001208DF80A0001A80CF0E6FDDA
:10D0900006208DF8000000208DF801008DF80200B8
:10D0A00001208DF80300684612F03AFA00210220B0
:10D0B0000EF05CFD0EBD08B50121102017F0CAF975
:10D0C0000120ADF8000048208DF803006946F848BB
:10D0D0000EF06AFD7E20ADF8000001208DF8020000
:10D0E00010208DF803006946F1480EF05DFD08BD83
:10D0F00038B50446072C21D2DFE804F0B204213E03
:10D100005B7895000220ADF8000001208DF8020048
:10D1100010208DF803006946E5480EF045FD012218
:10D120000221E3480EF019FE7C20ADF800004820F3
:10D130008DF803006946DE480EF036FD90E00420CD
:10D14000ADF8000001208DF8020010208DF80300DA
:10D150006946D7480EF028FD01220421D4480EF07C
:10D16000FCFD7A20ADF8000048208DF803006946E8
:10D17000CF480EF019FD73E00820ADF80000012043
:10D180008DF8020010208DF803006946C8480EF0A3
:10D190000BFD01220821C6480EF0DFFD7620ADF818
:10D1A000000048208DF803006946C1480EF0FCFCE1
:10D1B00056E01020ADF8000001208DF8020010208C
:10D1C0008DF803006946BA480EF0EEFC01221021EA
:10D1D000B7480EF0C2FD6E20ADF8000048208DF873
:10D1E00003006946B2480EF0DFFC39E02020ADF8BC
:10D1F000000001208DF8020010208DF80300694620
:10D20000AB480EF0D1FC01222021A9480EF0A5FD6B
:10D210005E20ADF8000048208DF803006946A44860
:10D220000EF0C2FC1CE04020ADF8000001208DF89B
:10D23000020010208DF8030069469D480EF0B4FCF2
:10D24000012240219A480EF088FD3E20ADF80000F2
:10D2500048208DF80300694695480EF0A5FC00BFF4
:10D2600000BF38BD10B50446072C2CD2DFE804F00F
:10D27000F9042C557EA7D00004218D480EF060FDE6
:10D28000012800D110BD082189480EF059FD012860
:10D2900001D10220F6E7102185480EF051FD01284A
:10D2A00001D10320EEE7202181480EF049FD01283D
:10D2B00001D10420E6E740217D480EF041FD012820
:10D2C00001D10520DEE7CCE0022179480EF038FDDF
:10D2D000012801D10720D5E7082175480EF030FD5F
:10D2E000012801D10820CDE7102171480EF028FD5A
:10D2F000012801D10920C5E720216D480EF020FD4D
:10D30000012801D10A20BDE7402169480EF018FD2F
:10D31000012801D10B20B5E7A3E0022164480EF0FB
:10D320000FFD012801D10D20ACE7042160480EF06B
:10D3300007FD012801D10E20A4E710215C480EF062
:10D34000FFFC012801D10F209CE7202158480EF056
:10D35000F7FC012801D1102094E7402154480EF039
:10D36000EFFC012801D111208CE77AE0022150481E
:10D370000EF0E6FC012801D1132083E704214C487C
:10D380000EF0DEFC012801D114207BE7082148487B
:10D390000EF0D6FC012801D1152073E72021444866
:10D3A0000EF0CEFC012801D116206BE74021404849
:10D3B0000EF0C6FC012801D1172063E751E00221DD
:10D3C0003B480EF0BDFC012801D119205AE7042189
:10D3D00037480EF0B5FC012801D11A2052E7082188
:10D3E00033480EF0ADFC012801D11B204AE7102183
:10D3F0002F480EF0A5FC012801D11C2042E7402156
:10D400002B480EF09DFC012801D11D203AE728E0B1
:10D41000022127480EF094FC012801D11F2031E79A
:10D42000042123480EF08CFC012801D1202029E79B
:10D4300008211F480EF084FC012801D1212021E79A
:10D4400010211B480EF07CFC012801D1222019E795
:10D45000202117480EF074FC012801D1232011E788
:10D4600000BF00BF00200DE708B50121102016F015
:10D47000F1FF7E20ADF8000001208DF802001020A1
:10D480008DF8030069460A480EF08EFB7E2108489D
:10D490000EF061FC08BD2DE9F0414FF000080126B7
:10D4A00043E03046FFF724FE00200446054615E021
:10D4B000001001403046FFF7D5FE0746474509D129
:10D4C000681C85B2BE2D01DD37B109E0642D03DB98
:10D4D00017B928E0B8460025601C84B2C82CE9DBE7
:10D4E00000BFC82C00DB1EE0032006F0EDFC00208E
:10D4F0000446054614E03046FFF7B4FE07464745AC
:10D500000BD1681C85B2BE2D03DD3FB13846BDE8A6
:10D51000F081642D02DB0FB905E004E0601C84B2E9
:10D52000C82CE8DB00BF701CC6B2062EB9DD002097
:10D53000EDE710B5002401215C480EF001FC30B984
:10D54000FFF7A9FF0446FFF78FFF204610BDFFF746
:10D550008BFF0020FAE710B55548007830B15448E9
:10D560000478002052490870204610BD17F0E6F8F4
:10D5700004464F48001D006850B14D48001D00682A
:10D58000844205D300F0C7F900204949091D08600D
:10D5900047480830006850B1454808300068844268
:10D5A00005D30020424908310860FE20DDE74048ED
:10D5B000C01C007870B9FFF7BCFF3D49491C0870DA
:10D5C0000846007810B10120891C08703848401CBA
:10D5D0000078CAE7FFF7ADFF3549491C08700846D7
:10D5E000007810B90020891C08700020BDE710B534
:10D5F000044624B900202E49091D086005E017F0F3
:10D600009DF820442A49091D086010BD10B5044644
:10D6100024B9002026490831086005E017F08EF88B
:10D62000204423490831086010BD21490870704723
:10D6300010B500F052F91FA21221182000F016FBBD
:10D6400020A22221032000F011FB00F064F9FFF773
:10D6500000FD00F09DFD00F0A9FD00F0D9FDFFF7F1
:10D6600005FDFFF701FF01201C490870012100079B
:10D6700016F0D0FE00200DF021FC00200DF02CFC57
:10D680000221012012F02AFA10BD10B501200CF081
:10D69000CFFA012809D111480078012802D10020D1
:10D6A0000E49087001200CF0BDFA10BD00100140B9
:10D6B000481100204C6F7720506F776572204D6FB6
:10D6C000646500005072657373203C456E7465722A
:10D6D0003E20746F20657869740000004A110020B4
:10D6E00008B50121242016F0B5FE41F60310ADF86F
:10D6F000000001208DF8020010208DF8030069461B
:10D70000FA480EF051FA0220ADF8000003208DF81F
:10D71000020010208DF803006946F5480EF044FA27
:10D7200008BD70B50446002501221102EF480EF035
:10D7300014FB00261BE000224FF48071EB480EF032
:10D740000CFB04F080052DB101220221E7480EF008
:10D7500004FB04E000220221E4480EF0FEFA01225C
:10D760001102E2480EF0F9FA6006040E761C082E4B
:10D77000E1DB70BD10B5044600224FF40061DB48C8
:10D780000EF0EBFA00220221D9480EF0E6FA20460C
:10D79000FFF7C7FF10BD10B504460122D102D348E0
:10D7A0000EF0DBFA00220221D1480EF0D6FA204614
:10D7B000FFF7B7FF10BD70B504460D46241DE9B252
:10D7C00041F0B000FFF7D6FF102141EA2411C8B2A2
:10D7D000FFF7D0FF04F00F00FFF7CCFF70BD00E0B3
:10D7E000401E0028FCD170472DE9F04104460F4649
:10D7F000164631462046FFF7DEFF254606E0BD49C6
:10D8000001EBC611485DFFF7C6FF6D1CBD4201DA92
:10D81000802DF4DBBDE8F08110B501221103B3487F
:10D820000EF09BFA01220221B1480EF096FA012275
:10D830001102AE480EF091FA01220221AB480EF01F
:10D840008CFA00224FF48051A8480EF086FA01208D
:10D85000FFF7C5FF01221103A4480EF07EFA012054
:10D86000FFF7BDFF00220221A1480EF076FA012247
:10D8700002219F480EF071FAA220FFF77BFFA02043
:10D88000FFF778FFC020FFF775FF2320FFF772FF37
:10D890008120FFF76FFF1620FFF76CFF2C20FFF7AA
:10D8A00069FF2E20FFF766FF2F20FFF763FF402060
:10D8B000FFF760FF1820FFF75DFF0F20FFF75AFF0B
:10D8C000B820FFF757FFAF20FFF754FF10BD10B58A
:10D8D000FFF706FFFFF7A0FF10BD70B5002400257D
:10D8E00000BF0FE0002405E00020824901EBC511D4
:10D8F0000855641C802CF7DBEAB280210020FFF77A
:10D9000073FF6D1C082DEDDB70BD10B5012177484C
:10D910000EF01FFA10BD10B5012174480EF01BFA6D
:10D9200010BD2DE9FE4714461D46DDE90B67EA46AA
:10D9300071A292E808038AE80803C4F108021DF8FE
:10D9400002801DF80620D24302F0FF090EE00B789A
:10D95000234103EA08032A78B24002EA090213438A
:10D960000370401C491C6D1C7A1ED7B2002FEED1EB
:10D97000BDE8FE8705E003780B400370401C531E92
:10D98000DAB2002AF7D170472DE9F04F8DB0044686
:10D990000D4616461F46DDF858800AA856A10EC946
:10D9A0000EC04FF0000A3046F11706EB5171C91056
:10D9B00008910898082802DB0DB0BDE8F08F802D93
:10D9C00000DDF9E7C5F18000B84201DB039703E011
:10D9D000C5F18000C0B203903046F11706EB5171DB
:10D9E000C910A6EBC10101F0FF0ACAF108004045C9
:10D9F00002DD4FF0010930E0BAF1000F13D14046CB
:10DA00004FEAE87108EB51714FEAE1094FEAE8711A
:10DA100008EB5171C910B8EBC1011ED009F101002A
:10DA200000F0FF0919E0CAF10801A8EB0100C117D5
:10DA300000EB5171C910491C01F0FF09CAF108013E
:10DA4000A8EB0100C11700EB5171C910B0EBC10187
:10DA500003D009F1010000F0FF0940464FEAE871E8
:10DA600008EB51714FEAE10B4FEAE87108EB517195
:10DA7000C910B8EBC10103D00BF1010000F0FF0B9E
:10DA800000200990BBE0099878BB1A49089801EB7F
:10DA9000C010284407900AA810F80A00069008EB66
:10DAA0000A00082808DA08EB0A000AA9085C0699A7
:10DAB00061EA0000C0B20690039ADDE90610FFF7A4
:10DAC00059FF039BCDE900A323460022079908468E
:10DAD000FFF727FFCAF10800C0B205900598082893
:10DAE0007FDB3C44002005907BE00BE00008014018
:10DAF000001401404E530020000103070F1F3F7F19
:10DB0000FF000000A9F101010998814255D1FF48A9
:10DB1000089900EBC11028440790CAF10801A8EB4E
:10DB20000100C11700EB5171C910A0EBC101C9B2CE
:10DB30000491049808B9082004900AA80499405C4C
:10DB4000C043C0B20690039ADDE90610FFF712FF4A
:10DB50004FEAE87108EB5171C910A8EBC1020499B2
:10DB60008A4213DB0022039B4FEAE87008EB5070F7
:10DB7000C010A8EBC0008DE80C010499401AC2B295
:10DB80002146079B1846FFF7CCFE2AE00022CDE98C
:10DB900000272146079B1846059AFFF7C2FE059805
:10DBA000C0F10800C2B2039BCDE90023E3190022B3
:10DBB00007990846FFF7B5FE13E0D449089801EB32
:10DBC000C010284407900598C0F10800C2B2039B1A
:10DBD000CDE90023E3192146059A0798FFF7A1FE36
:10DBE0003C44E819C1B22846089AFFF7FDFD0898A1
:10DBF000401CC0B208900998401CC0B20990099816
:10DC00004845FFF640AFD7E630B502460020A12ACE
:10DC10000FDBA92A0DDCA1F1A103A2F1A104C4EB41
:10DC2000041505EB441403EB440000EB4003D8005B
:10DC300012E0B02A10DBF72A0EDCA1F1A103A2F159
:10DC4000B004C4EB041505EB441403EB440000F2EC
:10DC50004E3000EB4003D80030BD70B504460D4691
:10DC6000182229462046FFF773F970BD2DE9F041CF
:10DC700088B004460D461646274631E030788028A5
:10DC800013DA0C230093317801EB4101A04A02EB37
:10DC9000810006232A463946FFF776FEB81DC7B233
:10DCA000802F00DB1FE0761C1AE071783078FFF7D8
:10DCB000ABFF8046414601A8FFF7CFFF0C232A4661
:10DCC000394601A80093FFF75FFE07F10C00C7B2C9
:10DCD000802F00DB07E0761C307800B903E0761C6B
:10DCE00030780028CAD100BF08B0BDE8F0812DE926
:10DCF000FF4F87B004460D461E4686A103C9CDE9F5
:10DD00000301684685A10EC90EC0AE4202DB099828
:10DD1000A04202DA0BB0BDE8F08F0998844272D1BC
:10DD20002846E91705EB51714FEAE109701B401CC9
:10DD300000F0FF082846E91705EB5171C910A5EB63
:10DD4000C101C1F1080101F0FF0BC34500DDC3466D
:10DD5000A8EB0B00C11700EB5171C910A0EBC1017A
:10DD6000C9B20591BBF1000F02D04FF0010A01E0EA
:10DD70004FF0000AA8EB0B00C11700EB51710AEB42
:10DD8000E10101F0FF0A059818B10AF1010000F065
:10DD9000FF0A2846E91705EB5171C910A5EBC1012F
:10DDA000C1F1080101F0FF0B002706970DE006986E
:10DDB00040100690474504DA069840F0800006902F
:10DDC00001E006980690781CC7B25F45EFDB4F462E
:10DDD00027E04F4505D14D4901EBC711069808557D
:10DDE00017E00AEB0900401EB8420DD1474800EB8E
:10DDF000C710005D05991DF801100843434901EB68
:10DE0000C711085505E011E0FF20404901EBC7119B
:10DE100008553A46601CC1B22046FFF7E5FC781C65
:10DE2000C7B20AEB0900B842D3DC27E0B54225D1DE
:10DE30002846E91705EB51714FEAE109E91705EBAF
:10DE40005171C910A5EBC10101F0FF0B27460DE090
:10DE50002E4800EBC910C05D03A911F80B10084350
:10DE60002A4901EBC911C855781CC7B209988742E5
:10DE7000EEDD4A4620460999FFF7B6FC4AE730B581
:10DE8000012B0AD1002405E005788D430570401C64
:10DE9000651CECB29442F7DB18E0022B0AD1002497
:10DEA00005E005780D430570401C651CECB29442FA
:10DEB000F7DB0BE0032B09D1002405E005784D408A
:10DEC0000570401C651CECB29442F7DB30BD2DE9B7
:10DED000F04F89B004460D4616461F4606A8AFF21D
:10DEE000E8310EC90EC04FF000091298052827D15D
:10DEF0003B46224629462046FFF7F9FE3B4632467E
:10DF000029463046FFF7F3FE2B460DE04E53002026
:10DF10007FD903080102040810204080FF01030795
:10DF20000F1F3F7FFF000000324629462046FFF7C3
:10DF3000DEFE3B46324639462046FFF7D8FEC0E0BB
:10DF40002846E91705EB5171C91005910599082973
:10DF500002DB09B0BDE8F08F802C00DBF9E7802EF2
:10DF600000DB7F26402D00DBF3E7402F00DB3F275F
:10DF70002846E91705EB5171C910A5EBC10101F065
:10DF8000FF09C9F1080000F0FF0ABAF1000F01D142
:10DF90004FF0080A01200490781B401C00F0FF0B92
:10DFA000301B401CC0B20090D34527DDABEB0A000C
:10DFB00000F0FF0B58464FEAEB710BEB5171049ADE
:10DFC00002EBE101C9B204914FEAEB710BEB517125
:10DFD000C910ABEBC10101F0FF0BBBF1000F03D087
:10DFE0000498401CC0B20490CDF804B0DDF804B031
:10DFF000BBF1000F05D10820019002E0DA460020B5
:10E0000001904FF0000859E0B8F1000F24D13648D4
:10E01000059900EBC110204403900020029011E00C
:10E02000029840100290BAF1000F07D0AAF1010047
:10E0300000F0FF0A029840F08000029009F1010010
:10E0400000F0FF09B9F1080FEADB129B009ADDE945
:10E050000210FFF714FF22E00498401E404510D143
:10E060002149059801EBC0102044039006A80199AE
:10E07000405C0290129B009ADDE90210FFF7FFFE60
:10E080000DE01948059900EBC11020440390FF20D2
:10E090000290129B009ADDE90210FFF7F0FE009853
:10E0A0002044C1B22046059AFFF79EFB0598401C0C
:10E0B000C0B2059008F1010000F0FF080498804507
:10E0C000A2DB46E710B50446642C00DD642403207F
:10E0D00094FBF0F0401DC4B28120FFF74BFB2046BB
:10E0E000FFF748FB10BD00004E53002008B501218A
:10E0F000682016F0AFF94FF48050ADF80000012011
:10E100008DF8020010208DF80300694681480DF05B
:10E110004BFD4FF40050ADF8000001208DF80200D7
:10E1200010208DF8030069467A480DF03DFD8020EF
:10E13000ADF8000048208DF8030001208DF80200A2
:10E14000694675480DF030FD4FF48040ADF8000091
:10E1500010208DF8030001208DF8020069466D48FB
:10E160000DF022FD4FF40040ADF8000010208DF8B6
:10E17000030001208DF80200694666480DF014FD89
:10E1800008BD10B54FF4805162480DF0E2FD10BD9E
:10E1900010B54FF480515F480DF0DDFD10BD10B596
:10E1A0004FF400515B480DF0D6FD10BD10B54FF493
:10E1B000005158480DF0CDFD10BD10B54FF4804111
:10E1C00054480DF0C8FD10BD10B54FF480415148C2
:10E1D0000DF0BFFD10BD10B580214F480DF0B0FD12
:10E1E00008B9012010BD0020FCE710B580214A4885
:10E1F0000DF0A6FD50B942F2107005F083FE8021AB
:10E2000045480DF09DFD08B9012010BD0020FCE738
:10E2100008B501217D2016F01DF94EF2F800ADF889
:10E22000000000208DF8030001208DF802006946EF
:10E230003A480DF0B9FC4FF2F330ADF80000002081
:10E240008DF8030001208DF80200694634480DF076
:10E25000ABFC42F6FE70ADF8000000208DF8030024
:10E2600001208DF8020069462E480DF09DFC4FF408
:10E27000BE60ADF8000000208DF8030001208DF88D
:10E280000200694623480DF08FFC08BD00B58BB035
:10E29000282101A806F0E3FC05F0DCFA05F0C0FB3C
:10E2A000FFF724FFFFF76DFFFFF779FFC82005F0A8
:10E2B0000BFEFEF78CFEFFF70AFBFFF70EFB4FF499
:10E2C000E13005F069FE4FF4E13005F073FF05F031
:10E2D00003FF06F021F8FEF7CEFCFEF7E0FBFEF7A9
:10E2E00009F8FDF743FF00F01FF804F00BFC03F002
:10E2F00061FF01A804F0BBF900F0BEFFFEF7DBFEF2
:10E30000FEF734F8002001F028F805F077FA0BB09A
:10E3100000BD000000140140001801400008014049
:10E32000000C01400010014008B50121082016F042
:10E3300091F84020ADF8000001208DF80200102077
:10E340008DF803006946FD480DF02EFC8020ADF8E5
:10E35000000001208DF8020014208DF803006946AA
:10E36000F6480DF021FC08BD10B58021F3480DF0F2
:10E37000E7FC10BD2DE9F04104460D461746002686
:10E380002146EFA01DF072FF00BF04E0A95DEDA0E3
:10E390001DF06CFF761CBE42F8D3ECA01DF066FFAA
:10E3A000EAA01DF063FFBDE8F081F0B50022002374
:10E3B000002400250126012901D11F2300E01F238D
:10E3C0000578012404E0075D9F4200D102E0641C4F
:10E3D000142CF8DB00BF142C00D1F0BD002406E0A3
:10E3E000825D475D87554255761C6D1E641C07781B
:10E3F00007EBD77CB4EB6C0FF2DBEEE701460020B5
:10E4000011F0100F01D040F0010011F0080F01D001
:10E4100040F0020011F0040F01D040F0040011F0B0
:10E42000020F01D040F0080011F0010F01D040F0C0
:10E43000100070470146002011F0400F01D040F05D
:10E44000010011F0200F01D040F0020011F0100F78
:10E4500001D040F0040011F0080F01D040F0080096
:10E4600011F0040F01D040F0100011F0020F01D0A4
:10E4700040F0200011F0010F01D040F04000704743
:10E4800030B50246012300200024012901D13F2498
:10E4900000E00F24012303E0D55C254068405B1CAD
:10E4A00015789D42F8DC30BD10B5014600220023EE
:10E4B00000BF07E001209840084201D0501CC2B2C2
:10E4C000581CC3B2082BF5DB02EBD2746410B2EB1C
:10E4D000440401D0012010BD0020FCE770B50446C3
:10E4E000012500BF06E0605DFFF7DEFF08B90020F0
:10E4F00070BD6D1C2078A842F5DC0120F8E72DE9FD
:10E50000F04704460D46012600274FF000084FF063
:10E510000009012D04D14FF045084FF01F0903E019
:10E520004FF00B084FF01F09012616E0A05D48458B
:10E5300002D10FB901270FE0A05D404503D1012FA3
:10E5400001D100270CE0012F06D1A05DFFF7ACFF41
:10E5500010B90020BDE8F087761C2078B042E5DCD9
:10E5600000BF0120F6E720F0100000F13001C8B232
:10E57000704770B50446012500BF04E0605DFFF7F9
:10E58000F2FF60556D1C2078A842F7DC70BD20F0CA
:10E59000400000F12001C8B2704770B50446012563
:10E5A00000BF04E0605DFFF7F2FF60556D1C20784E
:10E5B000A842F7DC70BD2DE9F0410446069D00201D
:10E5C00001261F788446012D02D14FF0450C01E051
:10E5D0004FF00B0C012608E013F80680E04503D14C
:10E5E00040F00100266002E0761CBE42F4DB00BF72
:10E5F0001CE013F80680B8F11F0F16D140F002009E
:10E600000E60012D08D106F1010813F8088008F00A
:10E610003F0882F8008007E006F1010813F808803F
:10E6200008F00F0882F8008002E0761CBE42E0DBB2
:10E6300000BFBDE8F0812DE9FF4104460D460020F2
:10E6400003900027012602900190234603AA01A906
:10E6500002A80095FFF7AFFF0746032F38D100BF90
:10E6600005E002983044401E205CA055761CDDE990
:10E670000101401AC01CB042F3DC02E00020A055AA
:10E68000761C01988642F9DB0198401C0299401AD9
:10E69000401C20702046FFF721FF18B9002004B06D
:10E6A000BDE8F08129462046FFF7EAFE07469DF8BF
:10E6B0000C00B84201D00020F1E7012D03D1204623
:10E6C000FFF76BFF02E02046FFF753FF0120E6E76C
:10E6D0000020E4E710B50446402118480DF039FB4E
:10E6E000052005F00FFC1A480078072807DB0020FA
:10E6F0001749087017480088401C164908801448BC
:10E700000078401C1249087012480088205C4010B4
:10E71000104909886054FFF727FE38B90D48008872
:10E72000205C40F040000B490988605440210348B8
:10E730000DF011FB052005F0E5FB10BD000C0140BC
:10E7400025737C0025303278200000000D0A00007F
:10E75000541100206411002010B504464021FD48EA
:10E760000DF0F7FA052005F0CDFBFB4800780728EF
:10E7700007DB0020F8490870F8480088401CF7497A
:10E780000880F5480078401CF3490870F348008879
:10E79000205C4006000EF14909886054FFF7E4FD53
:10E7A00038B9EE480088205C40F00100EB49098848
:10E7B00060544021E7480DF0CEFA052005F0A2FB99
:10E7C00010BD10B504464021E2480DF0C2FA052004
:10E7D00005F098FBE2480078052807DB0020E049B7
:10E7E0000870E0480088401CDE490880DC4800785A
:10E7F000401CDB490870DB480088205C4010D94988
:10E8000009886054FFF7B0FD38B9D6480088205C0D
:10E8100040F01000D349098860544021CD480DF0E4
:10E820009AFA052005F06EFB10BD10B50446402194
:10E83000C8480DF08EFA052005F064FBC848007842
:10E84000052807DB0020C6490870C6480088401C20
:10E85000C4490880C2480078401CC1490870C148BA
:10E860000088205C4006000EBE4909886054FFF70E
:10E870007BFD38B9BB480088205C40F00100B949F5
:10E88000098860544021B3480DF065FA052005F071
:10E8900039FB10BD10B50446B3480078052807DBE6
:10E8A0000020B1490870B1480088401CAF49088079
:10E8B0004021A8480DF04DFA052005F023FBAA4899
:10E8C0000078401CA8490870A8480088205C4010C7
:10E8D000A64909886054FFF747FD38B9A348008866
:10E8E000205C40F01000A1490988605440219948FB
:10E8F0000DF031FA052005F005FB10BD10B50446FA
:10E90000402194480DF025FA052005F0FBFA9648C1
:10E910000078052807DB0020934908709348008899
:10E92000401C9249088090480078401C8E4908702D
:10E930008E480088205C4006000E8C49098860548F
:10E94000FFF712FD38B989480088205C40F00100CB
:10E9500086490988605440217E480DF0FCF9052065
:10E9600005F0D0FA10BD30B50022002300BF11E041
:10E97000541C035D845C1E2505EA44048454202451
:10E9800004EA4304202C03D1845C44F00104845441
:10E99000541CE2B28A42EBDB30BD2DE9F043034662
:10E9A0000024002500260027A446A046A146012AEF
:10E9B00002D145261F2701E00B261F27002407E070
:10E9C000185DB84202D10125A04603E0601CC4B224
:10E9D0000A2CF5DB00BF002407E0185DB04202D12D
:10E9E0000225A44605E0601CC4B28C4201DA012D68
:10E9F000F3D000BFACEB080000F0FF09022D05D1F9
:10EA0000B9F1040F02DD0120BDE8F0830020FBE72F
:10EA1000014608460B789B1CDAB202E0531EDAB2BC
:10EA2000491C2AB10B783B2B02D00B78252BF5D152
:10EA3000491C05E00B780370531EDAB2491C401CD8
:10EA400012B10B783F2BF5D10023037070472DE9ED
:10EA5000F05F04460D4616461F464FF0000B00209F
:10EA60003D4908703E4908703F4908704049088098
:10EA70004049088040490880404908704049087072
:10EA80004049087040490870404908704049087082
:10EA9000012032490880334908803449088005F054
:10EAA0000AF800EB070A40212A480DF054F98021AA
:10EAB00028480DF050F9052005F024FA802125485A
:10EAC0000DF047F9052005F01DFA402121480DF011
:10EAD00040F9052005F016FA40211E480DF03BF9DB
:10EAE000052005F00FFA40211A480DF032F90520F3
:10EAF00005F008FA802117480DF02DF9052005F0E2
:10EB000001FA402113480DF026F9052005F0FAF925
:10EB1000402110480DF01DF9052005F0F3F94021C2
:10EB20000C480DF018F9052005F0ECF940210948D2
:10EB30000DF00FF9052005F0E5F93CE0FEF70BFDBF
:10EB40008146B9F1000F30D0B9F1160F22D1032060
:10EB5000BDE8F09F000C014054110020641100201A
:10EB60005511002066110020561100206811002068
:10EB7000581100205A1100205C1100205E11002065
:10EB80005F1100206011002061110020621100203F
:10EB900063110020B9F1130F02D10220BDE8F09FEC
:10EBA000B9F1170F01D10620F8E704F084FF5045B2
:10EBB00001D90420F2E7FFF7D7FB0128BED040219E
:10EBC000FF480DF0C8F8052005F09CF91AE0FEF7A3
:10EBD000C2FC8146B9F1000F0ED0B9F1160F01D178
:10EBE0000320DBE7B9F1130F01D10220D6E7B9F119
:10EBF000170F01D10620D1E704F05DFF504501D980
:10EC00000420CBE7FFF7B0FB0028E0D04021EC4820
:10EC10000DF09FF81AE0FEF79EFC8146B9F1000F57
:10EC20000ED0B9F1160F01D10320B7E7B9F1130FD8
:10EC300001D10220B2E7B9F1170F01D10620ADE7EB
:10EC400004F039FF504501D90420A7E7FFF78CFBFA
:10EC50000128E0D04021DA480DF07DF81AE0FEF7F7
:10EC60007AFC8146B9F1000F0ED0B9F1160F01D12F
:10EC7000032093E7B9F1130F01D102208EE7B9F118
:10EC8000170F01D1062089E704F015FF504501D97F
:10EC9000042083E7FFF768FB0028E0D0052005F09B
:10ECA00031F94FF000080FE04021C5480DF051F850
:10ECB000052005F027F94021C1480DF04CF805204A
:10ECC00005F020F908F10108B8F1100FECD34FF06E
:10ECD000000886E0BB480078012811D04021B848E0
:10ECE0000DF037F8052005F00DF9FFF73DFBB649AB
:10ECF00008704021B2480DF02EF8052005F002F909
:10ED0000B0480078002860D1B04800884010AF4972
:10ED10000880AD48007820B90846008840F40040DB
:10ED200008801F20FFF786FBA8490988490A884206
:10ED300022D10120A34908700020A5490870A348EA
:10ED40000088C0F38600FFF775FBA2490A8809888E
:10ED5000491CA04B1980A0549C480088400AFFF72A
:10ED600069FB9C490A880988491C9A4B1980A05460
:10ED7000AFF21B609849086094480088400A452813
:10ED80002DD192480088C0F3860040BB01208D49F8
:10ED9000087000208E4908708C480088C0F38601F6
:10EDA0008C4802880088401C8A4B1880A1548748F0
:10EDB0000088410A184602880088401C1880A15427
:10EDC000AFF2EF608449086009E005E0204682491F
:10EDD0000968884708F10108B8F5307FF6D308F1D3
:10EDE0000108B8F5307FFFF475AF4FF0000891E0EF
:10EDF0007A480078012811D0402171480CF0A9FF11
:10EE0000052005F07FF8FFF7AFFA7549087040213B
:10EE10006B480CF0A0FF052005F074F86F480078EF
:10EE200000286BD16F48008840106E4908806C48FC
:10EE3000007820B90846008840F4004008801F2070
:10EE4000FFF7DCFA67490988C90A884224D1012002
:10EE5000654908806149087000206449087061486C
:10EE60000088C0F38410FFF7C9FA5F490A8809884F
:10EE7000491C5D4B1980A8545A480088C00AFFF706
:10EE8000BDFA59490A880988491C574B1980A8546A
:10EE9000AFF269605649086052480088C0F3841098
:10EEA0000B2835D14F480088C0F3440000282FD1EB
:10EEB0004C480088C00A1F282AD001204A490880EF
:10EEC0004649087000204949087046480088C0F348
:10EED0008411454802880088401C434B1880A9547F
:10EEE00040480088C10A184602880088401C1880E3
:10EEF000A954AFF231703E49086009E005E02846A8
:10EF00003B490968884708F10108B8F5307FF6D316
:10EF100008F10108B8F5307FFFF46AAF4FF0000840
:10EF2000B8E034480078012811D0402124480CF082
:10EF300010FF052004F0E6FFFFF716FA2E490870CF
:10EF400040211F480CF007FF052004F0DBFF294893
:10EF5000007800287ED12948008840102749088081
:10EF60002548007820B90846008840F40040088011
:10EF70001F20FFF743FA21490988C90A884249D16D
:10EF800001201F4908801B49087000201D49087096
:10EF90001A480088C0F38410FFF730FA18490A882D
:10EFA0000988491C164B1980B05414480088C00ABF
:10EFB000FFF724FA12490A880988491C104B23E0FC
:10EFC000000C0140611100205E110020581100204A
:10EFD00054110020641100206C11002062110020E7
:10EFE0005F1100205A1100206611002055110020E9
:10EFF0007011002063110020601100205C110020BE
:10F0000068110020561100201980B054AFF213701F
:10F010007B4908607B480088C0F384100B2837D1F7
:10F0200078480088C0F34400002831D17548008832
:10F03000C00A1F282CD0012073490880734908702A
:10F040000020734908706F480088C0F384116E482F
:10F05000028800E012E00088401C6B4B1880B1541D
:10F0600068480088C10A184602880088401C188039
:10F07000B154AFF2DF706249086009E005E0304644
:10F080005F490968884708F10108B8F5307FF6D371
:10F0900008F10108B8F5307FFFF443AF5D48008800
:10F0A00020705D48008828705748008830705B48A1
:10F0B0000068AFF65B1188421ED14FF0000817E0E0
:10F0C00021780122601CFFF768FC01280AD1012188
:10F0D0002046FFF714FA012804D101212046FFF74A
:10F0E00064F908E02178601CFFF73DFC08F1010895
:10F0F000B8F1140FE4D300BF49480068AFF6D5015A
:10F1000088421ED14FF0000817E029780222681CBF
:10F11000FFF743FC01280AD102212846FFF7EFF947
:10F12000012804D102212846FFF73FF908E0297899
:10F13000681CFFF718FC08F10108B8F1140FE4D3BC
:10F1400000BF2F480068AFF64B0188421ED14FF038
:10F15000000817E031780322701CFFF71EFC01281D
:10F160000AD103213046FFF7CAF9012804D103214F
:10F170003046FFF71AF908E03178701CFFF7F3FB0F
:10F1800008F10108B8F1140FE4D300BF01212046B3
:10F19000FFF751FA28B90020207022A01DF066F870
:10F1A00004E02046FFF734FC4BF0800B0221284698
:10F1B000FFF741FA28B90020287021A01DF056F869
:10F1C00004E02846FFF724FC4BF0400B03213046B7
:10F1D000FFF731FA28B90020307020A01DF046F862
:10F1E00004E03046FFF714FC4BF0200BBBF1000F9E
:10F1F00002D14FF0050B01E04FF00A0B5846CDE469
:10F20000741100205C11002068110020631100209F
:10F210005611002064110020661100206C1100209E
:10F220007011002052656164436172643A20547227
:10F2300061636B31204572726F720D0A000000002D
:10F2400052656164436172643A20547261636B3247
:10F25000204572726F720D0A0000000052656164F1
:10F26000436172643A20547261636B332045727259
:10F270006F720D0A0000000010B510F023FC10BDE5
:10F280002DE9F0410446274805682748D0F8EC6787
:10F29000264807682A4626A120461CF0F7FF0834B6
:10F2A000324623A120461CF0F1FF08343A4620A143
:10F2B00020461CF0EBFF083400202070BDE8F081F0
:10F2C000FEB504460D4604F0F6FB0646304605F052
:10F2D000A5FC09E005F098FC0646324614A120463C
:10F2E0001CF0D4FF0834083D082DF3D285B105F099
:10F2F0008BFC064632460EA168461CF0C7FF002074
:10F300000DF805002A466946204605F08FFC2C447E
:10F3100000202070FEBD10B504460749204605F0C8
:10F3200011FD10BDE8F7FF1F00F0FF1FF0F7FF1FF2
:10F3300025303878000000005CE0030870B5044612
:10F340000E46154625B1314620460CF004FD03E07B
:10F35000314620460CF0FDFC70BD38B50446012155
:10F36000402015F077F87C20ADF8000010208DF8D3
:10F37000030003208DF802006946F8480CF014FCE5
:10F3800041F60170ADF8000010208DF80300032055
:10F390008DF802006946F1480CF006FC4FF400506D
:10F3A000ADF8000004208DF8030003208DF8020062
:10F3B0006946EA480CF0F8FB0220ADF80000002096
:10F3C0008DF8030003208DF802006946E3480CF035
:10F3D000EBFB00224FF48071E048FFF7AFFF002203
:10F3E0004FF48061DD48FFF7A9FF00220121DB48CF
:10F3F000FFF7A4FF00220421D848FFF79FFF002257
:10F400000821D648FFF79AFF00222021D348FFF7B2
:10F4100095FF00221021D148FFF790FF00224FF402
:10F420000061CE48FFF78AFF00224FF40071CB48FD
:10F43000FFF784FF00224FF48051C848FFF77EFF9A
:10F4400000224021C548FFF779FF0120C449087018
:10F45000C44908700020C44908701820C3490870C6
:10F46000ACB90120BE490870BE4908700020C049EF
:10F470000870C0490870C04908700320BF4908706F
:10F480000120BF4908704FF46170BE49086038BD63
:10F4900010B501224021B148FFF750FF10BD10B553
:10F4A00000220421AD48FFF749FF00220821AB48A4
:10F4B000FFF744FF00222021A848FFF73FFF00226A
:10F4C0001021A648FFF73AFF00224FF48071A348AD
:10F4D000FFF734FF00224FF48061A048FFF72EFFB2
:10F4E000002201219D48FFF729FF002240219B486F
:10F4F000FFF724FF00224FF400719848FFF71EFF2A
:10F5000010BD70B5044644B19748007800F007007C
:10F510009D4951F82000C5B207E09348007800F0FB
:10F5200007009A4951F82000C5B215F0030006D033
:10F5300001280DD0022814D0032824D11AE0042178
:10F5400086480CF006FC082184480CF002FC1AE006
:10F55000042182480CF0FFFB082180480CF0F9FBE5
:10F5600011E004217D480CF0F4FB08217B480CF0ED
:10F57000F2FB08E0042179480CF0EDFB0821774804
:10F580000CF0E9FB00BF00BF15F0040F04D02021F0
:10F5900072480CF0E0FB03E0202170480CF0D9FB2E
:10F5A00015F0080F04D010216C480CF0D4FB03E0D8
:10F5B00010216A480CF0CDFB6B480078401C6A496A
:10F5C000087070BD2DE9F04104460D4600267048D4
:10F5D000006870490968884222DA00BF1DE00022F5
:10F5E0004FF480515D48FFF7A9FE0122D1025B482C
:10F5F000FFF7A4FE00224FF400615848FFF79EFE7B
:10F600006348006863490968884200D107E0761CB6
:10F610005F480068401C5E490860AE42DFDB00BF07
:10F62000B6F5C07F01DBBDE8F0813FE05A480078C5
:10F63000275C4FF0080820E017F0800F05D001226A
:10F6400011034648FFF77AFE05E000224FF480518F
:10F650004248FFF773FE0122D1024048FFF76EFED9
:10F6600000224FF400613D48FFF768FE7806070E60
:10F67000A8F1010000F0FF08761CB8F1000FDBDCF8
:10F68000B6F5C07F00DBCEE7424800684349096811
:10F690000844B04205DC40480078401C3E490870F0
:10F6A00006E03D480078401C3B490870AE42BDDB97
:10F6B00000BF11E000224FF480512848FFF73EFEC2
:10F6C0000122D1022548FFF739FE00224FF40061E4
:10F6D0002248FFF733FE761CAE42EBDBA3E770B5A2
:10F6E0000446002630E02B48006886420FDD2B4898
:10F6F0000068284909680844B04208DD24480068C9
:10F70000255C23480068401C2149086000E0002572
:10F7100023480068054205D0012211030F48FFF776
:10F720000DFE05E000224FF480510C48FFF706FE65
:10F730000122D1020948FFF701FE00224FF40061C7
:10F740000648FFF7FBFD761CB6F5C07FCBDB70BD2E
:10F750002DE9F041044600255CE00000001801405E
:10F76000931100209411002078110020981100209E
:10F770009511002096110020921100209111002077
:10F7800097110020B011002080DF0308A0DF0308DC
:10F7900084110020A0110020901100209C11002055
:10F7A0008C110020F948006806784FF0080827E01F
:10F7B000F748077819E016F0800F05D001221103F1
:10F7C000F448FFF7BBFD05E000224FF48051F148FB
:10F7D000FFF7B4FD0122D102EE48FFF7AFFD002292
:10F7E0004FF40061EB48FFF7A9FD3800A7F10101D4
:10F7F000CFB2E0D17006060EA8F1010000F0FF08BC
:10F80000B8F1000FD4DCE1480068401CDF49086013
:10F81000681CC5B2A542C5DBBDE8F0812DE9F04109
:10F82000044600253CE0D94800680678DA480078AC
:10F8300008B1F043C6B24FF0080827E0D448077873
:10F8400019E016F0800F05D001221103D148FFF70F
:10F8500075FD05E000224FF48051CE48FFF76EFDA4
:10F860000122D102CB48FFF769FD00224FF400616D
:10F87000C848FFF763FD3800A7F10101CFB2E0D11E
:10F880007006060EA8F1010000F0FF08B8F1000FA5
:10F89000D4DCBE480068401CBC490860681CC5B286
:10F8A000A542C0DBBDE8F0812DE9F041044600250A
:10F8B00022E0002608271BE016F0800F05D0012269
:10F8C0001103B448FFF73AFD05E000224FF48051E0
:10F8D000B048FFF733FD0122D102AE48FFF72EFDFD
:10F8E00000224FF40061AB48FFF728FD781EC7B235
:10F8F000002FE1DC681CC5B2A542DADBBDE8F0816F
:10F900002DE9F0410446002522E0FF2608271BE0F0
:10F9100016F0800F05D0012211039E48FFF70EFD5F
:10F9200005E000224FF480519A48FFF707FD0122BD
:10F93000D1029848FFF702FD00224FF4006195487C
:10F94000FFF7FCFC781EC7B2002FE1DC681CC5B2D3
:10F95000A542DADBBDE8F08110B59048006804F0FC
:10F96000D1FA10BD0E284ED2DFE800F0070C1116B8
:10F970001B20252A2F34393E43484FF4FA71874A19
:10F98000116045E04FF41671844A116040E04FF475
:10F990002F71824A11603BE04FF448717F4A116039
:10F9A00036E040F252317D4A116031E04FF461712E
:10F9B0007A4A11602CE040F2B631784A116027E0B3
:10F9C0004FF47A71754A116022E040F21A41734A8D
:10F9D00011601DE040F24C41704A116018E040F2A5
:10F9E0007E416E4A116013E04FF496616B4A1160DC
:10F9F0000EE040F2E241694A116009E040F2145120
:10FA0000664A116004E04FF47A71644A116000BFE5
:10FA100000BF704710B5012251025E48FFF78EFC0F
:10FA200000224FF400715B48FFF788FC012251026D
:10FA30005848FFF783FC10BD70B505464FF4807140
:10FA400054480CF086F94FF4806152480CF081F96B
:10FA5000012150480CF07DF90C20FFF725FF0C2008
:10FA6000FFF722FF0C20FFF71FFF0C20FFF71CFF02
:10FA7000FFF7D0FF05B970BD002415E00120FFF7A6
:10FA800040FDFFF769FF0120FFF73BFDFFF764FF33
:10FA90000120FFF736FDFFF75FFF0120FFF731FD83
:10FAA000FFF75AFF601CC4B2AC42E7DBE3E770B576
:10FAB00005464FF4807137480CF04BF94FF48061E4
:10FAC00034480CF046F9012132480CF042F90C2080
:10FAD000FFF7EAFE0C20FFF7E7FE0C20FFF7E4FE3D
:10FAE0000C20FFF7E1FEFFF795FF05B970BD00247C
:10FAF00015E00020FFF705FDFFF72EFF0020FFF7C0
:10FB000000FDFFF729FF0020FFF7FBFCFFF724FFB4
:10FB10000020FFF7F6FCFFF71FFF601CC4B2AC42E9
:10FB2000E7DBE3E770B505464FF4807119480CF048
:10FB300010F94FF4806117480CF00BF901211548BA
:10FB40000CF007F9002D00DC70BD1BE0002415E06F
:10FB5000FFF702FF0120FFF7D4FCFFF7FDFE0120B5
:10FB6000FFF7CFFCFFF7F8FE0120FFF7CAFCFFF715
:10FB7000F3FE0120FFF7C5FC601CC4B2182CE7DBC4
:10FB8000681EC5B2002DE1D1DEE700007C11002027
:10FB9000931100200018014095110020B0110020A1
:10FBA00070B502460024002022B1A12A09D0A32A60
:10FBB0002BD118E001EB41054FF4403606EB051060
:10FBC00033E0A2F1A105ABB2A1F1A005ACB25E2574
:10FBD00003FB05F0204400EBC005E800F94D284484
:10FBE00000F5403021E0A2F1A305ABB2A1F1A005E0
:10FBF000ACB25E2503FB05F0204400EBC005E80035
:10FC0000F14D284400F540300FE0A2F1B005ABB251
:10FC1000A1F1A005ACB25E2503FB05F0204400EB8A
:10FC2000C005E80000F54C3000BF00BF70BD70B5E6
:10FC3000024612B1A12A17D106E0A1F120054FF426
:10FC40002F2606EB05101DE0A2F1A105EBB2A1F1F4
:10FC5000A105ECB25E2503FB05F020444001DB4D1D
:10FC6000284400F52F200DE0A2F1B005EBB2A1F180
:10FC7000A105ECB25E2503FB05F020444001D44D04
:10FC8000284400BF00BF70BD2DE9F84F04460D4663
:10FC90001646D0480068077817F0800F7DD1B84627
:10FCA0000027CD480068401CCB490860C94800685F
:10FCB000401CC8490860B8F1000F05D0B8F10A0F20
:10FCC00002D0B8F10D0F0BD14FF02008C1480068E9
:10FCD000401EC0490860C1480078401CBF490870F8
:10FCE00041463846FFF75CFF8146BD48007894FBEB
:10FCF000F0F009EB4009022249466846FDF728F971
:10FD0000B849087800EBD0714910B0EB41012CD014
:10FD10009DF800A04FEA2A1BB3480068285C40EA1F
:10FD20000B00B14909686854AF480068401CAE49EF
:10FD300008604FEA0A70000E096868549DF801A037
:10FD40004FEA2A1BA8480068285C40EA0B00A64935
:10FD500009686854A4480068401CA34908604FEA39
:10FD60000A70000E0968685410E09DF800A09E48D3
:10FD7000006805F800A09C480068401C9A4908608B
:10FD80009DF801A00846006805F800A09548007895
:10FD9000C01C94490870CEE0FFE78E480068401C04
:10FDA0008C4908600846006890F8008008460068A2
:10FDB000401C086088480068801C87490860002E45
:10FDC00039D08A480078202191FBF0F082490968F7
:10FDD000884230DA80480068801E7F4908604FF012
:10FDE000000A4FEA2A1B80480068285C40EA0B00A2
:10FDF0007D49096868547C480068401C7A4908605D
:10FE00004FEA0A100968685400BF4FEA2A1B764877
:10FE10000068285C40EA0B0073490968685472481E
:10FE20000068401C704908604FEA0A10096868546D
:10FE30000120BDE8F88F41463846FFF7B1FE814604
:10FE40006748007894FBF0F000EB40008144032207
:10FE500049466846FDF77CF86249087800EBD071A6
:10FE60004910B0EB410142D09DF800A04FEA2A1B97
:10FE70005D480068285C40EA0B005B4909686854EB
:10FE800059480068401C584908604FEA0A70000E43
:10FE9000096868549DF801A04FEA2A1B524800687F
:10FEA000285C40EA0B005049096868544E480068D5
:10FEB000401C4D4908604FEA0A70000E09686854FA
:10FEC0009DF802A04FEA2A1B47480068285C40EAD8
:10FED0000B0045490968685443480068401C424982
:10FEE00008604FEA0A70000E096868541EE09DF829
:10FEF00000A03D48006805F800A03B480068401C91
:10FF0000394908609DF801A00846006805F800A07E
:10FF100008460068401C08609DF802A0084600687A
:10FF200005F800A008460068401C08602D480078CD
:10FF3000801D2C49087000207BE770B504460D46F3
:10FF4000164636B1012E14D0022E22D0032E5AD1DD
:10FF50002FE004E0002229462046FFF795FE2348C3
:10FF60000078082191FBF0F01B4909688842F1DC18
:10FF70004AE004E0002229462046FFF785FE1B48A0
:10FF80000078102191FBF0F0134909688842F1DCF8
:10FF90003AE004E0002229462046FFF775FE1348A8
:10FFA0000078182191FBF0F00B4909688842F1DCD8
:10FFB0002AE01DE0012229462046FFF765FEB8B180
:10FFC0001FE0000060CB070038D50700F0530300A6
:10FFD000F0F50A00801100208C110020881100200B
:10FFE0009411002090110020841100209311002012
:10FFF000FB480078202191FBF0F0FA49096888421B
:020000040801F1
:10000000D8DC00BF00E000BF00BF70BD2DE9F84F95
:1000100004460D461646F4480068077817F0800F2E
:100020003BD1B8460027EF480068401CED49086006
:10003000ED480068401CEC490860B8F1000F05D09D
:10004000B8F10A0F02D0B8F10D0F0BD14FF0200814
:10005000E5480068401EE4490860E4480078401C18
:10006000E249087041463846FFF7E1FD8146E04825
:10007000007894FBF0F08144012249466846FCF781
:1000800067FF9DF80010DB4802680068401CD94BF0
:100090001860A95409F1010958E0D3480068401CD0
:1000A000D14908600846006890F80080084600685A
:1000B000401C0860CB480068801CCA490860F6B143
:1000C000C7480078302191FBF0F0C64909688842A2
:1000D00015DAC4480068801EC24908600021C5487E
:1000E00002680068401CC34B1860A9541846026897
:1000F0000068401C1860A9540120BDE8F88F4146F3
:100100003846FFF794FD8146B948007894FBF0F03B
:1001100009EB4009022249466846FCF719FF9DF8A1
:1001200000A0B44801680068401CB24A106005F89D
:1001300001A009F101099DF801A0104601680068BD
:10014000401C106005F801A009F101090020D4E766
:1001500070B504460D46164636B1012E14D0022E57
:1001600022D0032E43D12FE004E00022294620466E
:10017000FFF74CFF9A4800780C2191FBF0F0994969
:1001800009688842F1DC33E004E000222946204679
:10019000FFF73CFF92480078182191FBF0F091495D
:1001A00009688842F1DC23E004E000222946204669
:1001B000FFF72CFF8A480078242191FBF0F0894951
:1001C00009688842F1DC13E006E001222946204656
:1001D000FFF71CFF00B108E081480078302191FB57
:1001E000F0F0804909688842EFDC00BF00E000BF02
:1001F00000BF70BD0246505C7047F0B504460D4626
:10020000174637B1012F1DD0022F34D0032F64D1F0
:100210004AE0002613E0734801682046FFF7EAFF32
:10022000744909686854701CC6B272480068401C62
:10023000704908606B480068401C6A4908600C2ED1
:10024000E9DB4AE0002613E0664801682046FFF734
:10025000D1FF684909686854701CC6B265480068D7
:10026000401C644908605F480068401C5D490860A4
:100270000C2EE9DB31E0002613E05A4801682046E5
:10028000FFF7B8FF5B4909686854701CC6B259484B
:100290000068401C5749086052480068401C51499A
:1002A00008600C2EE9DB18E0002613E04D480168D9
:1002B0002046FFF79FFF4F4909686854701CC6B27B
:1002C0004C480068401C4B49086046480068401C88
:1002D000444908600C2EE9DB00BF00BFF0BD10B53B
:1002E0004FF4005144480BF02BFD10BD2DE9F041B7
:1002F00004460D4646E12078102838D1641C277842
:100300002868401C2860042F15D1641C26782868B2
:10031000401C2860042E09D1FFF7E1FF012801D11C
:10032000002700E06C270120BDE8F081641C2868EC
:10033000401C286026E1052FDCD1641C2678286843
:10034000401C2860052E0DD1641C26782868401CAE
:100350002860002E06DD152E04DA28480670007885
:10036000FFF700FB641C2868401C28600AE1641C3D
:1003700027782868401C28604C2F76D010DC402F4E
:1003800074D006DC2B2F72D0312F71D0322F70D168
:100390009EE0412F6ED04A2F6ED04B2FF7D17AE0DE
:1003A000582F4FD006DC552F09D0562F28D0572F65
:1003B000EDD135E0662F7DD0692FE8D194E0641C43
:1003C0002868401C28602678002E03DD092E01DAFB
:1003D00003480670641C2868401C2860D1E00000B7
:1003E000931100208C110020801100208811002022
:1003F0009411002084110020001801409711002062
:10040000641C2868401C28602678002E03DD092E15
:1004100001DAFF480670641C2868401C2860B0E0C0
:10042000641C2868401C28602678002E05DD092EF3
:1004300003DAF8480670F6480670641C2868401C09
:1004400028609EE0641C2868401C28602678012EE5
:1004500003D11020F049087002E01820EE4908701E
:10046000641C2868401C28608BE024E06AE05DE0A2
:1004700022E085E06FE0FFE7641C2868401C2860EC
:100480002678FFF705F83046FFF7D6FA641C28688F
:10049000401C286075E0641C2868401C2860267891
:1004A000FEF7F6FF3046FFF702FB641C2868401C8D
:1004B000286066E024E064E0641C2868401C286032
:1004C0002678D6480670641C2868401C286058E0CE
:1004D000641C2868401C28602678D1480670641C7B
:1004E0002868401C28604CE0641C2868401C286078
:1004F0002678CC480670641C2868401C286040E0C0
:10050000641C2868401C28602678641C2868401CED
:1005100028602678FEF7BCFF3046FFF703FBFEF7A6
:10052000BEFF641C2868401C28602AE0641C286800
:10053000401C28602678BC480670641C2868401C53
:1005400028601EE0641C2868401C28602678002073
:10055000FEF703FF15E0641C2868401C286026781D
:100560005C2E08D16E27002601E0701CC6B240F652
:10057000FF708642F9DB641C2868401C286000E09C
:1005800000BF00BF20781B283FF4B5AE20781028AC
:10059000FAD00020C8E62DE9F04F9BB004460D4686
:1005A0004FF0320800200190009082469F49087069
:1005B0009F48046069460068FFF798FE28B1FEF77F
:1005C0006EFF03201BB0BDE8F08F4FF03208002013
:1005D000019000908246954908700120FEF7BDFE0B
:1005E000FEF756FF41F2883003F08CFCFFF777FEF0
:1005F00018B9FEF754FF0120E4E78D48046069460E
:100600000068FFF773FE0098A84202D80098A8423D
:1006100003D1FEF744FF0320D4E700982044844927
:100620000860002083490860834908608349087096
:1006300081460620FFF700FA4A4602A90198FFF713
:100640007CFC0C20FFF730F9FFF786F90120FEF75C
:1006500058FF09F101094A4602A90198FFF76DFC0C
:100660000C20FFF721F9FFF777F90120FEF749FF8A
:1006700009F101094A4602A90198FFF75EFC0C2026
:10068000FFF712F9FFF768F90120FEF73AFF09F1C9
:1006900001094A4602A90198FFF74FFC0C20FFF719
:1006A00003F9FFF7B7F9FFF757F90120FEF729FF24
:1006B000FFF752F9D6E1002001905548007800EB91
:1006C0004000C006060E00BF00982044584908604C
:1006D0000AF1010000F0FF0A1AF0010F06D03220E3
:1006E0005449086002A85649086006E000205149B4
:1006F00008600DF13A005249086000204E49086038
:100700004E4908704949087081464A4602A9019835
:10071000401CC0B2FFF711FC09F101093D48007807
:100720000C2191FBF0F000F0FF0B5846FFF776F834
:10073000FFF712F90120FEF7E4FE01221102414801
:10074000FEF7FCFD012211463E48FEF7F7FD0122AF
:1007500091023C48FEF7F2FD4A4602A90198401C6E
:10076000C0B2FFF7EAFB09F101092A4800780C2121
:1007700091FBF0F000F0FF0B5846FFF74FF8FFF742
:10078000EBF80120FEF7BDFE4A4602A90198401C85
:10079000C0B2FFF7D2FB09F101091E4800780C2115
:1007A00091FBF0F000F0FF0B5846FFF737F8FFF72A
:1007B000D3F80120FEF7A5FE4A4602A90198401C85
:1007C000C0B2FFF7BAFB09F10109124800780C2109
:1007D00091FBF0F000F0FF0B5846FFF71FF8FFF712
:1007E00019F9FFF7B9F80120FEF78BFE0198401CBC
:1007F000C0B20190B0427FF767AF4FF480711148EB
:100800000BF0A7FA4FF480610E480BF0A2FA1BE040
:1008100094110020931100209811002091110020C4
:1008200092110020951100209611002088110020BF
:1008300080110020841100208C11002090110020D4
:100840007C110020001801400121FF480BF081FAC3
:10085000FFF745FD00B909E1FC480068077867B972
:10086000FB480068FB490978401AF94908600846C6
:100870000068401C08604FF001080A2F01D00D2FBE
:1008800031D1F3480068F3490978401AF04908600B
:10089000F048007818B108460068401C0860EB4832
:1008A000006847780D2F10D10A2F05D1E84800685D
:1008B000401CE749086016E0AFB9E5480068401CF5
:1008C000E34908604FF001080DE067B9E0480068AF
:1008D000E0490978401ADE49086008460068401C73
:1008E00008604FF00108DA49009809680844009050
:1008F00000982044D54908606946D4480068FFF74D
:10090000F5FC00982044D14908600020D2490860D5
:10091000CF490860D1490870814682460190D0488D
:10092000007800284AD0022646E00C20FEF7E8FFB7
:10093000FFF712F8FFF710F80120FEF7E2FD09F1CA
:10094000010000F0FF0901221102BF48FEF7F6FC8A
:1009500001221146BC48FEF7F1FC01229102BA487F
:10096000FEF7ECFC0C20FEF7CBFFFEF7F5FFFEF7E1
:10097000F3FF0120FEF7C5FD09F1010000F0FF09BA
:100980000C20FEF7BDFFFEF7E7FFFEF7E5FF0120B5
:10099000FEF7B7FD09F1010000F0FF090C20FEF79A
:1009A000AFFFFEF7D9FFFEF7D7FFFFF733F80120BF
:1009B000FEF7A7FD701EC6B2002EB6D14A4602A9A8
:1009C0000198FFF7BAFA0C20FEF76EFFFEF7C4FF9E
:1009D0000120FEF796FD09F1010000F0FF094A46EB
:1009E00002A90198FFF7A9FA0C20FEF75DFFFEF7B8
:1009F000B3FF0120FEF785FD09F1010000F0FF09BA
:100A00004A4602A90198FFF798FA0C20FEF74CFF1E
:100A1000FEF7A2FF0120FEF774FD09F1010000F0CE
:100A2000FF094A4602A90198FFF787FA0C20FEF752
:100A30003BFFFEF7EFFFFEF78FFF0120FEF761FDA2
:100A4000B8F1010F0AD087480078142802DD14207D
:100A50008449087083480078FEF7EEFFA8F1010092
:100A600000F0FF08B8F1000F7FF425AE00BF0022B0
:100A70004FF480717448FEF761FC00220121724836
:100A8000FEF75CFC00224FF480616F48FEF756FCD5
:100A900075480078142802DD1420734908707248E4
:100AA0000078FFF73FF8FFF71AFC18B9FEF7F7FCDC
:100AB000012087E5FEF7F3FC002083E52DE9F04FE8
:100AC0009BB004464FF02308002500200190824689
:100AD0006049087002206549087065490870012066
:100AE000FEF73BFCFEF7D4FC41F2883003F00AFA33
:100AF000FFF7F5FB28B9FEF7D2FC01201BB0BDE8DB
:100B0000F08F5248046001A90068FFF7EFFB18B1AD
:100B1000FEF7C5FC0320F1E7019820444B4908602B
:100B200000204D4908604A4908604C4908708146D8
:100B30000620FEF781FF4A4602A92846FFF708FB78
:100B40000C20FEF7B1FEFEF707FF0120FEF7D9FCEF
:100B500009F101094A4602A92846FFF7F9FA0C20D3
:100B6000FEF7A2FEFEF7F8FE0120FEF7CAFC09F12F
:100B700001094A4602A92846FFF7EAFA0C20FEF7C7
:100B800093FEFEF7E9FE0120FEF7BBFC09F1010927
:100B90004A4602A92846FFF7DBFA0C20FEF784FE3E
:100BA000FEF738FFFEF7D8FE0120FEF7AAFCBBE1F6
:100BB00000252E4800780007060E00BF019820444B
:100BC000224908600AF1010000F0FF0A1AF0010F43
:100BD00006D032202049086002A82649086006E0B5
:100BE00000201D4908600DF13A00224908600020EC
:100BF00017490860194908701649087081464A4625
:100C000002A9681CC0B2FFF7A3FA09F1010918484C
:100C100000780C2191FBF0F000F0FF0B5846FEF736
:100C200097FDFEF799FE0120FEF76BFC01221102F1
:100C30000548FEF783FB012211460348FEF77EFBC1
:100C400001229102004817E00018014080110020A5
:100C50008C110020881100208411002090110020A8
:100C60009611002091110020921100209411002073
:100C7000931100207C110020FEF760FB4A4602A978
:100C8000681CC0B2FFF764FA09F10109FF48007857
:100C90000C2191FBF0F000F0FF0B5846FEF758FDD9
:100CA000FEF75AFE0120FEF72CFC4A4602A9681CFA
:100CB000C0B2FFF74DFA09F10109F44800780C21A0
:100CC00091FBF0F000F0FF0B5846FEF741FDFEF7F8
:100CD00043FE0120FEF715FC4A4602A9681CC0B27B
:100CE000FFF736FA09F10109E84800780C2191FB79
:100CF000F0F000F0FF0B5846FEF72AFDFEF78AFEE3
:100D0000FEF72AFE0120FEF7FCFB4FF48071E0485D
:100D10000BF01FF84FF48061DD480BF01AF8012149
:100D2000DB480BF016F8681CC0B20546B0427FF7EE
:100D300045AFFFF7D4FA00B9FAE0D6480068077863
:100D400067B9D5480068D5490978401AD249086082
:100D500008460068401C08604FF001080A2F01D0C7
:100D60000D2F19D1CC480068CC490978401ACA49DE
:100D70000860CA48007818B108460068401C08603E
:100D80000D2F09D1C348006847780A2F04D1C24803
:100D90000068401CC0490860BF49019809680844C0
:100DA000019001982044BB4908600020BC490860BC
:100DB000B9490860BB490870814682460025BA4897
:100DC000007800284AD0022646E00C20FEF798FD65
:100DD000FEF7C2FDFEF7C0FD0120FEF792FB09F110
:100DE000010000F0FF0901221102A948FEF7A6FA4E
:100DF00001221146A648FEF7A1FA01229102A44859
:100E0000FEF79CFA0C20FEF77BFDFEF7A5FDFEF732
:100E1000A3FD0120FEF775FB09F1010000F0FF09B9
:100E20000C20FEF76DFDFEF797FDFEF795FD012006
:100E3000FEF767FB09F1010000F0FF090C20FEF747
:100E40005FFDFEF789FDFEF787FDFEF7E3FD01205C
:100E5000FEF757FB701EC6B2002EB6D14A4602A955
:100E60002846FFF775F9894800780C2191FBF0F0CE
:100E700000F0FF0B5846FEF717FDFEF76DFD012051
:100E8000FEF73FFB09F1010000F0FF094A4602A905
:100E90002846FFF75DF97D4800780C2191FBF0F0C2
:100EA00000F0FF0B5846FEF7FFFCFEF755FD012052
:100EB000FEF727FB09F1010000F0FF094A4602A9ED
:100EC0002846FFF745F9714800780C2191FBF0F0B6
:100ED00000F0FF0B5846FEF7E7FCFEF73DFD012052
:100EE000FEF70FFB09F1010000F0FF094A4602A9D5
:100EF0002846FFF72DF90C20FEF7D6FCFEF78AFDF9
:100F0000FEF72AFD0120FEF7FCFA68480078142855
:100F100002DD14206549087064480078FEF78CFDF6
:100F2000A8F1010000F0FF08B8F1000F7FF440AE17
:100F300000BF00224FF480715548FEF7FFF90022F0
:100F400001215348FEF7FAF900224FF4806150481E
:100F5000FEF7F4F956480078142802DD14205449AD
:100F6000087053480078FEF7DDFDFFF7B8F918B9AF
:100F7000FEF795FA0120C1E5FEF791FA0020BDE5E4
:100F80002DE9F041044600270020FEF7E6F9FEF7C0
:100F90007FFA41F2883002F0B5FFFFF7A0F920B9DF
:100FA000FEF77DFA0120BDE8F08100203C49086091
:100FB000394908603F4908704FF4807134480AF09D
:100FC000C8FE4FF4806132480AF0C3FE0121304868
:100FD0000AF0BFFEFEF7C0FC00253748067800BFC8
:100FE00000202F4908602F4908704FF4C071204637
:100FF000FEF7E8FA2B4800780444FEF7ADFCFEF754
:10100000ABFC0120FEF77DFA012211022048FEF719
:1010100095F9012211461E48FEF790F9012291022E
:101020001B48FEF78BF9781CC7B2FEF795FCFEF75C
:1010300093FC0120FEF765FA781CC7B2FEF78CFC22
:10104000FEF78AFC0120FEF75CFA781CC7B2FEF7B7
:1010500083FCFEF781FCFEF7DDFC0120FEF751FA70
:10106000681CC0B20546B042BADBFEF775FC002230
:1010700001210748FEF762F900224FF4806104481D
:10108000FEF75CF900224FF4807117E09311002005
:1010900000180140801100208C11002088110020D0
:1010A0008411002090110020961100209111002041
:1010B00092110020A411002099110020FF48FEF792
:1010C0003DF9FFF70CF918B9FEF7E9F901206AE7D5
:1010D000FEF7E5F9002066E72DE9F04104460D46EC
:1010E000FFF7FDF820B9FEF7DAF90220BDE8F0813C
:1010F0000120F34908600020F2490870F2490860B5
:1011000000272E4600BF2046FEF7E9FAFEF724FC32
:10111000FEF722FC0120FEF7F4F901221146E74810
:10112000FEF70CF9FEF718FCFEF716FC0022012171
:10113000E248FEF703F90120FEF7E3F901229102EC
:10114000DE48FEF7FBF8FEF707FCFEF705FC002281
:101150004FF48061D948FEF7F1F80120FEF7D1F98C
:1011600001221102D548FEF7E9F8FEF7F5FBFEF77C
:10117000F3FB00224FF48071D048FEF7DFF8FEF752
:1011800049FC0120FEF7BDF9CD4800684000CC497C
:1011900008600020CB490870CB490860781CC0B2B9
:1011A0000746B042AFDBFEF7D7FB00220121C34860
:1011B000FEF7C4F800224FF48061C048FEF7BEF885
:1011C00000224FF48071BD48FEF7B8F8FFF787F8AA
:1011D00008B902208AE7012088E72DE9F04104469A
:1011E000884627463C4638781B2802D03878102895
:1011F00015D13878102826D17F1C3E78042E0FD1C7
:101200007F1C3D78042D09D1FFF769F8012801D131
:10121000002603E06C260220BDE8F0817F1CB8E0C8
:10122000052EFCD17F1C3D78052D0AD17F1C3D7811
:10123000002D06DD152D04DAA44805700078FEF7B0
:1012400091FB7F1CA5E07F1C3E784C2E5FD010DC0C
:10125000402E6FD006DC2B2E7DD0312E58D0322E72
:101260006AD15BE0412E68D04A2E3ED04B2EF7D19A
:1012700044E0582E2CD006DC552E09D0562E11D025
:10128000572EEDD118E0662E58D0692E7FD14BE055
:101290007F1C3D78002D03DD092D01DA8C48057097
:1012A0007F1C75E07F1C3D78002D03DD092D01DAE0
:1012B000884805707F1C6BE07F1C3D78002D05DDA4
:1012C000092D03DA82480570824805707F1C5FE0B3
:1012D0007F1C3D78012D03D110207F49087002E06A
:1012E00018207D4908707F1C52E07F1C3D78FEF776
:1012F000CFF82846FEF7A0FB7F1C49E07F1C3D7815
:10130000FEF7C6F82846FEF7D2FB7F1C40E03FE020
:101310007F1C3D78714805707F1C39E07F1C3D784B
:101320006F4805707F1C33E07F1C3D786D48057069
:101330007F1C2DE016E00EE029E019E07F1C3D78CF
:101340007F1C3D78FEF7A4F82846FEF7EBFBFEF77E
:10135000A6F87F1C1CE07F1C3D78681E624908705F
:101360007F1C15E07F1C3D780020FDF7F6FF0FE0A5
:101370007F1C3D785C2D08D16E26002501E0681C9D
:10138000C5B240F6FF708542F9DB7F1C00E000BF6C
:1013900000BF012040E710B5024600230C464B1E5B
:1013A00010E0D05C0D2802D0D05C0A2801D1581C76
:1013B00010BDD05C002804DDD05C202801DA581C68
:1013C000F6E75B1E002BECDC3BB91078102802D04E
:1013D00010781B2801D12046EAE71846E8E72DE9F6
:1013E000F84F0446002500263B4890F80080384816
:1013F00090F80090374890F800A0374800783549B9
:1014000009784843C6B233E094F800B0BBF11B0F33
:1014100002D0BBF1100F0FD100200090694620468A
:10142000FEF764FF2C4800782A4909784843C7B280
:10143000B7421BDD3E4619E0BBF10A0F02D0BBF1FB
:101440000D0F00D117E024480078182806D1204855
:1014500000780C2101FB0050C5B205E01C48007863
:10146000082101FB0050C5B20120009000980444FF
:10147000B5F5C07FC8DB00BF174880F8008014486E
:1014800080F80090134880F800A03046BDE8F88F3F
:101490002DE9F04704460D4616461F46C6F30728B9
:1014A00006F0FF09B8F1000F3ED1182F2BD14946A5
:1014B0004046FEF775FB8246064817E000180140DB
:1014C0008C11002090110020841100209711002021
:1014D00093110020941100209811002091110020F8
:1014E000921100209511002096110020007894FBA5
:1014F000F0F00AEB400A022251462846FBF728FD8D
:101500000220BDE8F08749464046FEF790FB824640
:10151000FF48007894FBF0F08244012251462846AF
:10152000FBF716FD0120ECE7182F11D14946404684
:10153000FEF736FB8246F648007894FBF0F000EBAD
:1015400040008244032251462846FBF701FD11E08A
:1015500049464046FEF76BFB8246ED48007894FB17
:10156000F0F00AEB400A022251462846FBF7F0FC55
:101570000220C6E70020C4E7FCB5E64E3478E6A7B3
:10158000C0CFCDE900670B46002519E0E14E347865
:1015900010E02E1D1DF8066016420AD000EBD3069F
:1015A000367803F007071DF807703E4300EBD307BA
:1015B0003E705B1C2600A4F10107FCB2E9D16D1C52
:1015C000042DE3DBFCBD2DE9F04F87B004460D464A
:1015D00016460027B846D24890F800A0CD480078BB
:1015E0000690CB4800780590002002900090CC48EF
:1015F0000078182807D1C648007800EB4000C006E4
:101600004FEA106904E0C248007800074FEA106909
:101610002846FFF7E4FE80463021204603F01FFBFA
:10162000CAE195F800B0BBF11B0F02D0BBF1100F5F
:101630002FD10020029002A92846FEF757FEB84895
:101640000078182807D1B248007800EB4000C006A7
:101650004FEA106904E0AE48007800074FEA1069CD
:10166000C14500DDC846AF480078022805D10320F7
:10167000AC490870AC48076008E0AA480078012827
:1016800004D10320A7490870A848076002980544C0
:101690008EE1BBF10A0F18D1002002906D1C029858
:1016A000401C02902878049004980D2808D16D1CE5
:1016B0000298401C029002990098084400907FE133
:1016C00002990098084400907AE1BBF10D0F18D1FF
:1016D000002002906D1C0298401C02902878049013
:1016E00004980A2808D16D1C0298401C02900299A7
:1016F00000980844009063E1029900980844009023
:101700005EE109EB0600404536DA002002901BF04E
:10171000800F14D0824800787E49097800FB017060
:10172000B0F5C07F00D94BE17D4800787949097850
:1017300000FB0177AD1C0298801C029038E17849CB
:101740000978744A127801FB02F000EBD07107EBC4
:101750006101B1F5C07F00D932E1714909786D4A64
:10176000127801FB02F000EBD07107EB61076D1CF2
:101770000298401C02901BE11BF0800F70D068485B
:1017800000786449097800FB0170B0F5C07F00D98A
:1017900016E1002002900298801C02906D1C2878AF
:1017A00004906D1C049800EB0B200190A6EB08013F
:1017B0004944C8B25A490B7803A9019AFFF768FE59
:1017C0005748007818284CD19DF80C000211394672
:1017D0002046FFF7D1FE4F480078042101FB007737
:1017E0009DF80C0000F00F0239462046FFF7C4FEBA
:1017F00048480078042101FB00779DF80D00021194
:1018000039462046FFF7B8FE42480078042101FB24
:1018100000779DF80D0000F00F0239462046FFF7D3
:10182000ABFE3C480078042101FB00779DF80E00D8
:10183000021139462046FFF79FFE36480078042102
:1018400001FB00779DF80E0000F00F02394620469C
:10185000FFF792FE2F480078042101FB0077A7E0F4
:1018600032E09DF80C00021139462046FFF784FE55
:1018700028480078042101FB00779DF80C0000F057
:101880000F0239462046FFF777FE224800780421F0
:1018900001FB00779DF80D00021139462046FFF745
:1018A0006BFE1C480078042101FB00779DF80D00B9
:1018B00000F00F0239462046FFF75EFE154800781B
:1018C000042101FB007773E015490978114A127869
:1018D00001FB02F000EBD07107EB6101B1F5C07FB5
:1018E00000D96DE000200290CDF804B00298401CB1
:1018F00002906D1CA6EB08014944C8B208490B7858
:1019000003A9019AFFF7C4FD0548007818280FE0E5
:10191000941100209311002080402010080402013F
:101920009811002096110020A8110020AC11002071
:1019300025D19DF80C00021139462046FFF71CFE08
:10194000FF480078042101FB00779DF80C0000F0AF
:101950000F0239462046FFF70FFEF94800780421B0
:1019600001FB00779DF80D00021139462046FFF774
:1019700003FEF3480078042101FB007718E09DF88E
:101980000C00021139462046FFF7F6FDEC480078BE
:10199000042101FB00779DF80C0000F00F0239468E
:1019A0002046FFF7E9FDE6480078042101FB0077B7
:1019B0000299009808440090B7F5C07FFFF431AE5B
:1019C00000BF701C404508D0DE4880F800A0DC490C
:1019D00006980870DC49059808700098C0B207B0F6
:1019E000BDE8F08F2DE9F04104460D4605EB4500BA
:1019F00004EB800400262FE02778D448007808B153
:101A0000F843C7B24FF0080820E017F0800F05D068
:101A100001221103CE48FDF791FC05E000224FF4AE
:101A20008051CB48FDF78AFC0122D102C848FDF75E
:101A300085FC00BF00224FF40061C548FDF77EFC25
:101A40007806070EA8F1010000F0FF08B8F1000FBA
:101A5000DBDC641C701CC6B20C2ECDDBBDE8F08153
:101A60000CB50146BBA309CBCDE90003BB48006818
:101A7000C0F3C70203E0FF208854501CC2B2B8482C
:101A80000068B2EBD00FF6D9B448006800F0070048
:101A90001DF80000B14B1B6801EBD3031870B04870
:101AA000006800F007001DF8000080F0FF00AC4B5C
:101AB0001B6801EBD30318700CBD2DE9F04F8DB0FE
:101AC00004464FF00009204603F005F91FFA80FB99
